:100000003EC1000059C1000057C1000055C10000A9
:1000100053C1000051C100004FC100004DC100009C
:100020004BC1000049C1000047C1000045C10000AC
:1000300043C100005EC500003FC100003DC100009B
:100040003BC1000039C1000037C10000E5C5000018
:1000500033C1000031C100002FC100002DC10000DC
:100060002BC1000029C1000027C1000025C10000EC
:1000700023C1000021C100001FC100001DC10000FC
:100080001BC1000019C1000017C10000FB012102C3
:1000900047026D029302B902DF020503FB01000073
:1000A00000000000005F00000007000700147F143C
:1000B0007F14242A7F2A12231308646236495522AA
:1000C000500005030000001C2241000041221C00DA
:1000D00014083E081408083E0808005030000008C4
:1000E00008080808006060000020100804023E5163
:1000F00049453E00427F4000426151494621414509
:100100004B311814127F1027454545393C4A49495F
:100110003001710905033649494936064949291E06
:100120000036360000005636000008142241001444
:100130001414141400412214080201510906324912
:1001400079413E7E1111117E7F494949363E414138
:1001500041227F4141221C7F494949417F090909C8
:10016000013E4149497A7F0808087F00417F4100EC
:100170002040413F017F081422417F404040407FA2
:10018000020C027F7F0408107F3E4141413E7F09FF
:100190000909063E4151215E7F0919294646494910
:1001A000493101017F01013F4040403F1F20402075
:1001B0001F3F4038403F6314081463070870080766
:1001C0006151494543007F4141000204081020006D
:1001D00041417F00040201020440404040400001D0
:1001E00002040020545454787F484444383844442E
:1001F0004420384444487F3854545418087E090138
:10020000020C5252523E7F0804047800447D4000A4
:100210002040443D007F1028440000417F40007C86
:10022000041804787C0804047838444444387C1466
:10023000141408081414187C7C0804040848545446
:100240005420043F4440203C4040207C1C2040205F
:100250001C3C4030403C44281028440C5050503C3A
:100260004464544C44000836410000007F00000004
:100270004136080010080810080000000000112492
:100280001FBECFEFD0E4DEBFCDBF11E0A0E0B1E0F4
:10029000E8E6F1E100E00BBF02C007900D92AE343A
:1002A000B107D9F724E0AEE4B1E001C01D92AA3154
:1002B000B207E1F7DDD456C7A3CE0097C1F01CF416
:1002C000019691F005C08130910529F0029779F0EF
:1002D0008FEF9FEF089520917301222351F0F7D5FE
:1002E0005E9A82E090E0089580E090E0089581E0D9
:1002F00090E008958130910509F520E030E078E044
:10030000E1E0F0E078B988B1AF01022E02C0440FFD
:10031000551F0A94E2F7462311F0816001C08E7FD9
:1003200098B1892B88B9419A2F5F3F4F283031050A
:1003300049F7429A88B1807F88B908958330910542
:1003400001F580E090E050E8E1E0F0E058B948B114
:100350009F01082E02C0220F331F0A94E2F72623C2
:1003600019F0242F206102C0242F2F7E28B9459A2E
:1003700001968830910551F7469A88B18F7088B9F7
:1003800008950297F9F480E090E050E8E1E0F0E0B1
:1003900052B942B19F01082E02C0220F331F0A94A6
:1003A000E2F7262319F0242F206102C0242F2F7E8C
:1003B00022B9159A01968830910551F7169A82B1A3
:1003C0008F7082B9089560E083E090E093DF6FEF73
:1003D00081E090E08FDF6FEF82E090E08BCF0895B7
:1003E000CF93DF9301968930910508F034C18A5B81
:1003F0009F4FFC01AEC6C0E0D1E0E881F981628187
:1004000083E090E077DFE881F981618181E090E02D
:1004100071DF6FEF82E090E06DDFE881F98162814A
:1004200083E090E067DFE881F981608182E090E01D
:1004300061DF6FEF81E090E05DDFC5DF80E090E09D
:100440000CC1C0E0D1E0EA81FB81628183E090E0F1
:1004500051DFEA81FB81618181E090E04BDF6FEF4A
:1004600082E090E047DFEA81FB81628183E090E0F7
:1004700041DFEA81FB81608182E090E03BDF6FEF4A
:1004800081E090E037DF9FDF81E090E0E6C0C0E0F0
:10049000D1E0EC81FD81628183E090E02BDFEC8193
:1004A000FD81618181E090E025DF6FEF82E090E0E7
:1004B00021DFEC81FD81628183E090E01BDFEC8134
:1004C000FD81608182E090E015DF6FEF81E090E0D8
:1004D00011DF79DF82E090E0C0C0C0E0D1E0EE81C2
:1004E000FF81628183E090E005DFEE81FF81618121
:1004F00081E090E0FFDE6FEF82E090E0FBDEEE81D6
:10050000FF81628183E090E0F5DEEE81FF81608112
:1005100082E090E0EFDE6FEF81E090E0EBDE53DF12
:1005200083E090E09AC0C0E0D1E0E885F98562817F
:1005300083E090E0DFDEE885F985618181E090E08D
:10054000D9DE6FEF82E090E0D5DEE885F985628143
:1005500083E090E0CFDEE885F985608182E090E07D
:10056000C9DE6FEF81E090E0C5DE2DDF84E090E032
:1005700074C0C0E0D1E0EA85FB85628183E090E051
:10058000B9DEEA85FB85618181E090E0B3DE6FEF43
:1005900082E090E0AFDEEA85FB85628183E090E057
:1005A000A9DEEA85FB85608182E090E0A3DE6FEF43
:1005B00081E090E09FDE07DF85E090E04EC0C0E084
:1005C000D1E0EC85FD85628183E090E093DEEC85EF
:1005D000FD85618181E090E08DDE6FEF82E090E04B
:1005E00089DEEC85FD85628183E090E083DEEC8529
:1005F000FD85608182E090E07DDE6FEF81E090E03C
:1006000079DEE1DE86E090E028C0C0E0D1E0EE8552
:10061000FF85628183E090E06DDEEE85FF8561817C
:1006200081E090E067DE6FEF82E090E063DEEE85D0
:10063000FF85628183E090E05DDEEE85FF8560816D
:1006400082E090E057DE6FEF81E090E053DEBBDEAA
:1006500087E090E002C08FEF9FEFDF91CF91089588
:10066000EAE7F0E08081806E8083ECE7F0E0808153
:10067000806480830895ECE7F0E09081987F837038
:10068000892B80838FE090E000000197E9F780914B
:100690007800909179000895CF93DF9381E0EBDFAC
:1006A000EC0180E0E8DFCE3521E0D20798F410922B
:1006B00008041092070481E090E09093FC0380937B
:1006C000FB031092FE031092FD031092F5031092AB
:1006D000F40344C0CB38D24098F01092FC0310923F
:1006E000FB0310920804109207041092F503109275
:1006F000F40381E090E09093FE038093FD032EC00D
:10070000282F392F293582E0380798F01092FE0300
:100710001092FD031092FC031092FB031092080448
:100720001092070481E090E09093F5038093F40326
:1007300015C02A3F310590F41092F5031092F4038E
:1007400081E090E090930804809307041092FE03E8
:100750001092FD031092FC031092FB03DF91CF91E6
:1007600008951092FE031092FD031092FC03109264
:10077000FB031092F5031092F403109208041092F8
:1007800007040895CF93DF93EC018130910591F038
:100790004CF4CF3F8FEFD80709F445C1CD2B09F4B6
:1007A0006CC164C18230910509F492C0039709F4C9
:1007B00014C15CC18091070490910804019761F510
:1007C00086D360E080E07BD461E08AE191E065D48B
:1007D00069E185E074D461E089E291E05ED463E28E
:1007E00080E06DD461E086E391E057D463E285E078
:1007F00066D461E088E391E050D4809171019091DA
:100800007201019739F469E084E159D461E083E42D
:1008100091E043D459D42DC118992CC081E090E0C7
:10082000909372018093710152D360E080E047D4CD
:1008300061E08AE191E031D469E084E140D461E093
:1008400083E491E02AD469E180E039D461E086E371
:1008500091E023D469E185E032D461E089E291E05E
:100860001CD463E285E02BD461E088E391E015D4E9
:100870002BD403C1199923C01092720110927101F7
:1008800026D360E080E01BD461E08AE191E005D4EA
:1008900069E180E014D461E086E391E0FED369E190
:1008A00085E00DD461E089E291E0F7D363E285E071
:1008B00006D461E088E391E0F0D306D4DEC002996B
:1008C000DCC081E090E09093700180936F01D5C00F
:1008D0008091F4039091F503019761F5F8D260E0FF
:1008E00080E0EDD361E08AE191E0D7D369E180E077
:1008F000E6D361E086E391E0D0D369E185E0DFD320
:1009000061E089E291E0C9D363E285E0D8D361E098
:1009100088E391E0C2D380917101909172010197B7
:1009200039F469E084E1CBD361E083E491E0B5D3AD
:10093000CBD3A3C018992CC081E090E090937201B2
:1009400080937101C4D260E080E0B9D361E08AE1B4
:1009500091E0A3D369E084E1B2D361E083E491E064
:100960009CD369E185E0ABD361E089E291E095D366
:1009700063E280E0A4D361E086E391E08ED363E29A
:1009800085E09DD361E088E391E087D39DD371C07A
:1009900019996FC0109272011092710198D260E0A3
:1009A00080E08DD361E08AE191E077D369E185E071
:1009B00086D361E089E291E070D363E280E07FD387
:1009C00061E086E391E069D363E285E078D361E09A
:1009D00088E391E062D378D34CC08091F403909186
:1009E000F503019709F040C072D260E080E067D360
:1009F00061E08AE191E051D369E185E060D361E093
:100A000089E291E04AD369E180E059D361E086E36D
:100A100091E043D363E285E052D361E088E391E063
:100A20003CD352D326C053D260E080E048D361E08B
:100A30008AE191E032D369E180E041D361E086E36D
:100A400091E02BD369E185E03AD361E089E291E05E
:100A500024D363E285E033D361E088E391E01DD3E2
:100A600033D3C0E0D0E00CC07CDE0AC0CFEFDFEFB4
:100A700007C077DEC2E0D0E003C073DEC1E0D0E0A3
:100A8000CE01DF91CF910895609310017093110111
:100A90008093120190931301609374017093750118
:100AA000809376019093770108958BE08093810085
:100AB0008DE790E0909389008093880082E0809396
:100AC0006F00109285001092840080911001909127
:100AD0001101A0911201B0911301809374019093C0
:100AE0007501A0937601B09377018FB780688FBFAF
:100AF00008951F920F920FB60F9211248F939F9318
:100B0000AF93BF938091740190917501A09176018C
:100B1000B09177010197A109B10980937401909375
:100B20007501A0937601B0937701892B8A2B8B2BCB
:100B300099F481E0809378018091100190911101E6
:100B4000A0911201B09113018093740190937501EB
:100B5000A0937601B0937701BF91AF919F918F9150
:100B60000F900FBE0F901F901895E3E7F3E023EF6F
:100B700033E009C011921192E817F907D9F7FC0187
:100B80002817390719F0CF014096F4CF0895CF9375
:100B9000DF93EC01FC019C01205F3F4F9FEFA081A0
:100BA000B18111969C93A191B1919C93E217F307A7
:100BB000B1F7E881F98181E08283EA81FB8182E0FB
:100BC0008283EC81FD8184E08283EE81FF8188E075
:100BD0008283E885F98580E18283EA85FB8580E26E
:100BE0008283EC85FD8580E48283EE85FF8580E845
:100BF0008283DF91CF91089580E484B98FEB85B92A
:100C00008CB5806C8CBD8FB780688FBF08958EBD0A
:100C10000DB407FEFDCF08951F920F920FB60F92ED
:100C200011240BB60F922F933F934F935F936F93C3
:100C30007F938F939F93AF93BF93EF93FF938EB563
:100C4000809373015E9A8FEFE2DFFF91EF91BF9186
:100C5000AF919F918F917F916F915F914F913F9154
:100C60002F910F900BBE0F900FBE0F901F901895F5
:100C7000CF93DF9300D000D000D0CDB7DEB714B84B
:100C80008FEF85B98AB91BB8EBDCEBD020D1B4DF8C
:100C900080E091E07CDF69DF0F2EF5E0EF2EF02D94
:100CA000F12C00E010E051E040E030E020E004C032
:100CB000E62EF72E082F192F652F742F832F922FD2
:100CC0002E2D3F2D402F512F22D25E2D4F2D302F14
:100CD000212F611571058105910551F764E670E0DA
:100CE00080E090E02E2D3F2D402F512F10D2290172
:100CF0003A0161E070E080E090E02E2D3F2D402F22
:100D0000512F05D249015A0165E070E080E090E082
:100D10002E2D3F2D402F512FFAD186E0E4E1F1E056
:100D2000DE01119601900D928A95E1F7E4E6F1E07B
:100D30006FEF608341825282638274824582568261
:100D40006782708682EC93E092878187E9E5F1E023
:100D5000608381829282A382B48285829682A782F6
:100D6000B08680EF91E092878187EEE4F1E06083C6
:100D7000218332834383548325833683478350877B
:100D80008DE591E0928781876E2D7F2D802F912FA9
:100D90007BDE8BDE7E0187E0E80EF11C7DDC80913E
:100DA00073018823C9F15E9A37C0D6010D911D9158
:100DB0006D01F8014581568167817085818192813D
:100DC000A381B481481759076A077B0779F48081AA
:100DD0000184F285E02D082E000C990B0995D801AD
:100DE0008C93F8011582168217821086F80185818E
:100DF0009681A781B0850196A11DB11D858396833B
:100E0000A783B087CE14DF0481F680917801882310
:100E1000E1F310927801C2CFCE0101966C01C5CFEB
:100E20005898662311F05A9A15C05A9813C0AC010D
:100E3000022E02C0559547950A94E2F740FF02C082
:100E40005B9A01C05B985C9A5C982150310978F7F5
:100E5000589A089527E030E090E0E9CF60E0E0CFD5
:100E60000895CF93DF93509A519A529A539A549A75
:100E7000599A589A83EC99E00197F1F700C0000065
:100E800059988BE594E40197F1F700C00000599A56
:100E9000589881E2E3DF83E1E1DF86E0DFDF82EC87
:100EA000DDDF80E2DBDF89E0D9DF80E8D7DF80E4C7
:100EB000D5DFC8EFD1E061E080E0B2DF2197D9F75C
:100EC00088E0CCDF8CE0CADFDF91CF91089580E825
:100ED000C5DF80E4C3DF1092710310927203E9E76B
:100EE000F1E081E793E01192E817F907E1F708953F
:100EF000262F26952695269590E034E5239F800D94
:100F0000911D1124442379F0FC01E758FE4F6770CE
:100F100081E090E002C0880F991F6A95E2F7908106
:100F2000892B80830895FC01E758FE4F677081E0AC
:100F300090E002C0880F991F6A95E2F78095908132
:100F40008923808308955F926F927F928F929F9200
:100F5000AF92BF92CF92DF92EF92FF920F931F93C7
:100F6000CF93DF93562E262F30E04901880C991C31
:100F7000880C991C820E931E181419040CF059C089
:100F80008901000F111F000F111F000F111F021BFD
:100F9000130B612CA82EB12CC50180975C01AA0C03
:100FA000BB1CAA0CBB1CA80EB91E0F2EF2E7CF2E3D
:100FB000F3E0DF2EF02D0F2EF1E7EF2EF3E0FF2E02
:100FC000F02D2AC0FE01249130E0872D652D93D0AD
:100FD00002C0359527958A95E2F720FF09C0F601F2
:100FE0006081670DF701808141E0860D81DF08C0D7
:100FF000F6016081670DF701808140E0860D78DFA2
:101000007394872D90E080179107E4F26394862D06
:1010100090E0881599056CF410161106BCF7862D22
:10102000652D69D0E501C80FD11DC256DF4F712C67
:10103000C9CF8091710391E0980F852D880F880F9B
:10104000850D890F843518F4809371030EC01092BA
:101050007103E2E7F3E0808191E0980F852D880F1E
:10106000880F880F8519890F8083809172038033E0
:1010700020F01092710310927203DF91CF911F91B3
:101080000F91FF90EF90DF90CF90BF90AF909F9027
:101090008F907F906F905F9008951F93CF93DF9311
:1010A000EC018881882339F0162F2196612F4BDFC0
:1010B00089918111FBCFDF91CF911F91089580938A
:1010C00071036093720308950F931F93CF93DF937F
:1010D00080E8C4DE80E4C2DEC9E7D1E001E713E0C6
:1010E00061E089919DDEC017D107D1F7DF91CF91E3
:1010F0001F910F910895991B79E004C0991F9617CD
:1011000008F0961B881F7A95C9F780950895A1E28B
:101110001A2EAA1BBB1BFD010DC0AA1FBB1FEE1F71
:10112000FF1FA217B307E407F50720F0A21BB30BBC
:10113000E40BF50B661F771F881F991F1A9469F738
:1011400060957095809590959B01AC01BD01CF0194
:101150000895EE0FFF1F0024001C0BBE0790F691B0
:08116000E02D0994F894FFCF83
:101168000F04FF030C041304F70302041704090413
:1011780001000000640159014E01464D205472617E
:101188006E736D697474657200537065616B657216
:10119800204D6F6465002A004C4544204D617472EF
:0E11A80069780050616972656400256400007A
:00000001FF
