S01B000053696D706C65464D5472616E736D69747465722E737265636F
S11300003EC1000059C1000057C1000055C10000A5
S113001053C1000051C100004FC100004DC1000098
S11300204BC1000049C1000047C1000045C10000A8
S113003043C10000E3C400003FC100003DC1000013
S11300403BC1000039C1000037C1000065C5000094
S113005033C1000031C100002FC100002DC10000D8
S11300602BC1000029C1000027C1000025C10000E8
S113007023C1000021C100001FC100001DC10000F8
S11300801BC1000019C1000017C10000FB012102BF
S113009047026D029302B902DF020503FB0100006F
S11300A000000000005F00000007000700147F1438
S11300B07F14242A7F2A12231308646236495522A6
S11300C0500005030000001C2241000041221C00D6
S11300D014083E081408083E0808005030000008C0
S11300E008080808006060000020100804023E515F
S11300F049453E00427F4000426151494621414505
S11301004B311814127F1027454545393C4A49495B
S11301103001710905033649494936064949291E02
S11301200036360000005636000008142241001440
S1130130141414140041221408020151090632490E
S113014079413E7E1111117E7F494949363E414134
S113015041227F4141221C7F494949417F090909C4
S1130160013E4149497A7F0808087F00417F4100E8
S11301702040413F017F081422417F404040407F9E
S1130180020C027F7F0408107F3E4141413E7F09FB
S11301900909063E4151215E7F091929464649490C
S11301A0493101017F01013F4040403F1F20402071
S11301B01F3F4038403F6314081463070870080762
S11301C06151494543007F41410002040810200069
S11301D041417F00040201020440404040400001CC
S11301E002040020545454787F484444383844442A
S11301F04420384444487F3854545418087E090134
S1130200020C5252523E7F0804047800447D4000A0
S11302102040443D007F1028440000417F40007C82
S1130220041804787C0804047838444444387C1462
S1130230141408081414187C7C0804040848545442
S11302405420043F4440203C4040207C1C2040205B
S11302501C3C4030403C44281028440C5050503C36
S11302604464544C44000836410000007F00000000
S1130270413608001008081008000000000011248E
S11302801FBECFEFD0E4DEBFCDBF11E0A0E0B1E0F0
S1130290E0E3F0E100E00BBF02C007900D92AE3442
S11302A0B107D9F724E0AEE4B1E001C01D92A83152
S11302B0B207E1F741D4BAC6A3CE0097C1F01CF44B
S11302C0019691F005C08130910529F0029779F0EB
S11302D08FEF9FEF089520917101222351F05BD598
S11302E05E9A82E090E0089580E090E0089581E0D5
S11302F090E008958130910509F520E030E078E040
S1130300E1E0F0E078B988B1AF01022E02C0440FF9
S1130310551F0A94E2F7462311F0816001C08E7FD5
S113032098B1892B88B9419A2F5F3F4F2830310506
S113033049F7429A88B1807F88B90895833091053E
S113034001F580E090E050E8E1E0F0E058B948B110
S11303509F01082E02C0220F331F0A94E2F72623BE
S113036019F0242F206102C0242F2F7E28B9459A2A
S113037001968830910551F7469A88B18F7088B9F3
S113038008950297F9F480E090E050E8E1E0F0E0AD
S113039052B942B19F01082E02C0220F331F0A94A2
S11303A0E2F7262319F0242F206102C0242F2F7E88
S11303B022B9159A01968830910551F7169A82B19F
S11303C08F7082B9089560E083E090E093DF6FEF6F
S11303D081E090E08FDF6FEF82E090E08BCF0895B3
S11303E0CF93DF9301968930910508F034C18A5B7D
S11303F09F4FFC0112C6C0E0D1E0E881F98162811F
S113040083E090E077DFE881F981618181E090E029
S113041071DF6FEF82E090E06DDFE881F981628146
S113042083E090E067DFE881F981608182E090E019
S113043061DF6FEF81E090E05DDFC5DF80E090E099
S11304400CC1C0E0D1E0EA81FB81628183E090E0ED
S113045051DFEA81FB81618181E090E04BDF6FEF46
S113046082E090E047DFEA81FB81628183E090E0F3
S113047041DFEA81FB81608182E090E03BDF6FEF46
S113048081E090E037DF9FDF81E090E0E6C0C0E0EC
S1130490D1E0EC81FD81628183E090E02BDFEC818F
S11304A0FD81618181E090E025DF6FEF82E090E0E3
S11304B021DFEC81FD81628183E090E01BDFEC8130
S11304C0FD81608182E090E015DF6FEF81E090E0D4
S11304D011DF79DF82E090E0C0C0C0E0D1E0EE81BE
S11304E0FF81628183E090E005DFEE81FF8161811D
S11304F081E090E0FFDE6FEF82E090E0FBDEEE81D2
S1130500FF81628183E090E0F5DEEE81FF8160810E
S113051082E090E0EFDE6FEF81E090E0EBDE53DF0E
S113052083E090E09AC0C0E0D1E0E885F98562817B
S113053083E090E0DFDEE885F985618181E090E089
S1130540D9DE6FEF82E090E0D5DEE885F98562813F
S113055083E090E0CFDEE885F985608182E090E079
S1130560C9DE6FEF81E090E0C5DE2DDF84E090E02E
S113057074C0C0E0D1E0EA85FB85628183E090E04D
S1130580B9DEEA85FB85618181E090E0B3DE6FEF3F
S113059082E090E0AFDEEA85FB85628183E090E053
S11305A0A9DEEA85FB85608182E090E0A3DE6FEF3F
S11305B081E090E09FDE07DF85E090E04EC0C0E080
S11305C0D1E0EC85FD85628183E090E093DEEC85EB
S11305D0FD85618181E090E08DDE6FEF82E090E047
S11305E089DEEC85FD85628183E090E083DEEC8525
S11305F0FD85608182E090E07DDE6FEF81E090E038
S113060079DEE1DE86E090E028C0C0E0D1E0EE854E
S1130610FF85628183E090E06DDEEE85FF85618178
S113062081E090E067DE6FEF82E090E063DEEE85CC
S1130630FF85628183E090E05DDEEE85FF85608169
S113064082E090E057DE6FEF81E090E053DEBBDEA6
S113065087E090E002C08FEF9FEFDF91CF91089584
S1130660EAE7F0E08081806E8083ECE7F0E080814F
S1130670806480830895ECE7F0E09081987F837034
S1130680892B80838FE090E000000197E9F7809147
S11306907800909179000895CF93DF9381E0EBDFA8
S11306A0EC0180E0E8DFCE3521E0D20798F4109227
S11306B006041092050481E090E09093FA0380937D
S11306C0F9031092FC031092FB031092F3031092AF
S11306D0F20344C0CB38D24098F01092FA0310923F
S11306E0F90310920604109205041092F303109279
S11306F0F20381E090E09093FC038093FB032EC00F
S1130700282F392F293582E0380798F01092FC03FE
S11307101092FB031092FA031092F903109206044C
S11307201092050481E090E09093F3038093F20328
S113073015C02A3F310590F41092F3031092F2038E
S113074081E090E090930604809305041092FC03EA
S11307501092FB031092FA031092F903DF91CF91E8
S113076008951092FC031092FB031092FA03109266
S1130770F9031092F3031092F203109206041092FC
S1130780050408958130910591F04CF48F3F2FEFCB
S1130790920709F4C7C0892B09F4EFC0EBC082307B
S11307A0910509F439C0039709F48FC0E3C080911F
S11307B0050490910604019731F5EDD260E080E0E4
S11307C0E2D361E08AE191E0CCD36FE085E0DBD352
S11307D061E089E291E0C5D369E180E0D4D361E0CE
S11307E081E391E0BED369E185E0CDD361E083E3A9
S11307F091E0B7D363E285E0C6D361E080E491E0A1
S1130800B0D3C6D3BEC00299B8C081E090E0909343
S1130810700180936F01B1C08091F2039091F30352
S1130820019731F5B8D260E080E0ADD361E08AE1B0
S113083091E097D36FE085E0A6D361E089E291E08F
S113084090D36FE080E09FD361E081E391E089D3AE
S113085069E185E098D361E083E391E082D363E2C8
S113086085E091D361E080E491E07BD391D385C0AE
S11308708091050490910604019709F082C08BD2FF
S113088060E080E080D361E08AE191E06AD36FE0C8
S113089085E079D361E089E291E063D369E185E0A1
S11308A072D361E083E391E05CD363E285E06BD3D0
S11308B061E080E491E055D363E280E064D361E0D9
S11308C081E391E04ED364D360C08091F2039091B0
S11308D0F303019709F059C05ED260E080E053D37E
S11308E061E08AE191E03DD36FE085E04CD361E0C3
S11308F089E291E036D369E185E045D361E083E3A1
S113090091E02FD369E180E03ED361E081E391E09F
S113091028D363E285E037D361E080E491E021D31A
S113092037D32FC038D260E080E02DD361E08AE174
S113093091E017D36FE085E026D361E089E291E08E
S113094010D36FE080E01FD361E081E391E009D32D
S113095069E185E018D361E083E391E002D363E2C7
S113096085E011D361E080E491E0FBD211D380E013
S113097090E008958FEF9FEF0895F3DE81E090E01B
S11309800895EFDE82E090E00895EBDE83E090E0EE
S11309900895609310017093110180931201909354
S11309A013016093720170937301809374019093A7
S11309B0750108958BE0809381008DE790E090931A
S11309C089008093880082E080936F0010928500F4
S11309D0109284008091100190911101A091120154
S11309E0B09113018093720190937301A0937401E9
S11309F0B09375018FB780688FBF08951F920F92CF
S1130A000FB60F9211248F939F93AF93BF9380914E
S1130A10720190917301A0917401B09175010197D5
S1130A20A109B1098093720190937301A093740199
S1130A30B0937501892B8A2B8B2B99F481E08093D9
S1130A4076018091100190911101A0911201B09151
S1130A5013018093720190937301A0937401B09376
S1130A607501BF91AF919F918F910F900FBE0F9021
S1130A701F901895E1E7F3E021EF33E009C01192EC
S1130A801192E817F907D9F7FC012817390719F06B
S1130A90CF014096F4CF0895CF93DF93EC01FC018E
S1130AA09C01205F3F4F9FEFA081B18111969C93E1
S1130AB0A191B1919C93E217F307B1F7E881F98111
S1130AC081E08283EA81FB8182E08283EC81FD8183
S1130AD084E08283EE81FF8188E08283E885F98562
S1130AE080E18283EA85FB8580E28283EC85FD8553
S1130AF080E48283EE85FF8580E88283DF91CF9155
S1130B00089580E484B98FEB85B98CB5806C8CBD75
S1130B108FB780688FBF08951F920F920FB60F9200
S1130B2011248F938EB5809371015E9A8F910F90EB
S1130B300FBE0F901F901895CF93DF9300D000D075
S1130B4000D0CDB7DEB78FEF84B915B88AB91BB81A
S1130B5087DDEBD020D1D5DF80E091E09DDF8ADF17
S1130B600F2EF5E0EF2EF02DF12C00E010E051E017
S1130B7040E030E020E004C0E62EF72E082F192FC5
S1130B80652F742F832F922F2E2D3F2D402F512F01
S1130B9022D25E2D4F2D302F212F61157105810535
S1130BA0910551F764E670E080E090E02E2D3F2D32
S1130BB0402F512F10D229013A0161E070E080E00A
S1130BC090E02E2D3F2D402F512F05D249015A017F
S1130BD065E070E080E090E02E2D3F2D402F512FF6
S1130BE0FAD186E0E4E1F1E0DE01119601900D9284
S1130BF08A95E1F7E4E6F1E06FEF60834182528287
S1130C0063827482458256826782708682EC93E0A6
S1130C1092878187E9E5F1E0608381829282A382F1
S1130C20B48285829682A782B08680EF91E0928713
S1130C308187EEE4F1E0608321833283438354832C
S1130C4025833683478350878DE591E0928781879A
S1130C506E2D7F2D802F912F9CDEACDE7E0187E0F0
S1130C60E80EF11C19DD809171018823C9F15E9AA7
S1130C7037C0D6010D911D916D01F8014581568152
S1130C806781708581819281A381B4814817590756
S1130C906A077B0779F480810184F285E02D082EB0
S1130CA0000C990B0995D8018C93F80115821682D2
S1130CB017821086F80185819681A781B0850196F7
S1130CC0A11DB11D85839683A783B087CE14DF044D
S1130CD081F6809176018823E1F310927601C2CFE8
S1130CE0CE0101966C01C5CF5898662311F05A9A2B
S1130CF015C05A9813C0AC01022E02C055954795F1
S1130D000A94E2F740FF02C05B9A01C05B985C9AC8
S1130D105C982150310978F7589A089527E030E01B
S1130D2090E0E9CF60E0E0CF0895CF93DF93509A4D
S1130D30519A529A539A549A599A589A83EC99E030
S1130D400197F1F700C0000059988BE594E40197EE
S1130D50F1F700C00000599A589881E2E3DF83E17B
S1130D60E1DF86E0DFDF82ECDDDF80E2DBDF89E0EC
S1130D70D9DF80E8D7DF80E4D5DFC8EFD1E061E0D8
S1130D8080E0B2DF2197D9F788E0CCDF8CE0CADFBE
S1130D90DF91CF91089580E8C5DF80E4C3DF10922E
S1130DA06F0310927003E7E7F1E08FE693E011928E
S1130DB0E817F907E1F70895262F26952695269535
S1130DC090E034E5239F800D911D1124442379F094
S1130DD0FC01E958FE4F677081E090E002C0880F83
S1130DE0991F6A95E2F79081892B80830895FC010D
S1130DF0E958FE4F677081E090E002C0880F991FA8
S1130E006A95E2F7809590818923808308955F92A3
S1130E106F927F928F929F92AF92BF92CF92DF9206
S1130E20EF92FF920F931F93CF93DF93562E262FAB
S1130E3030E04901880C991C880C991C820E931E81
S1130E40181419040CF059C08901000F111F000F68
S1130E50111F000F111F021B130B612CA82EB12CA4
S1130E60C50180975C01AA0CBB1CAA0CBB1CA80E74
S1130E70B91E0F2EF0E7CF2EF3E0DF2EF02D0F2E4C
S1130E80FFE6EF2EF3E0FF2EF02D2AC0FE012491A1
S1130E9030E0872D652D93D002C0359527958A952E
S1130EA0E2F720FF09C0F6016081670DF701808138
S1130EB041E0860D81DF08C0F6016081670DF7010E
S1130EC0808140E0860D78DF7394872D90E0801751
S1130ED09107E4F26394862D90E0881599056CF4EB
S1130EE010161106BCF7862D652D69D0E501C80FD3
S1130EF0D11DC256DF4F712CC9CF80916F0391E091
S1130F00980F852D880F880F850D890F843518F467
S1130F1080936F030EC010926F03E0E7F3E08081CB
S1130F2091E0980F852D880F880F880F8519890FF8
S1130F30808380917003803320F010926F031092AD
S1130F407003DF91CF911F910F91FF90EF90DF908D
S1130F50CF90BF90AF909F908F907F906F905F9055
S1130F6008951F93CF93DF93EC018881882339F090
S1130F70162F2196612F4BDF89918111FBCFDF91D1
S1130F80CF911F91089580936F0360937003089528
S1130F900F931F93CF93DF9380E8C4DE80E4C2DE17
S1130FA0C7E7D1E00FE613E061E089919DDEC01749
S1130FB0D107D1F7DF91CF911F910F910895991B1C
S1130FC079E004C0991F961708F0961B881F7A953C
S1130FD0C9F780950895A1E21A2EAA1BBB1BFD0137
S1130FE00DC0AA1FBB1FEE1FFF1FA217B307E40704
S1130FF0F50720F0A21BB30BE40BF50B661F771F5C
S1131000881F991F1A9469F760957095809590953B
S11310109B01AC01BD01CF010895EE0FFF1F002419
S1131020001C0BBE0790F691E02D0994F894FFCFB5
S11310300D04FD030A041104F50300041504070458
S113104001000000640159014E01464D20547261B3
S11310506E736D697474657200464D204D6F6465DE
S1131060002A00537065616B6572204D6F646500E2
S11110704C4544204D6174726978002564007B
S9030000FC
