:1000000046C1000062C1000060C100005EC1000086
:100010005CC100005AC1000058C1000056C1000078
:1000200054C1000052C1000050C100004EC1000088
:100030004CC10000E7C3000048C1000046C10000F9
:1000400044C1000042C1000040C100000C941409EA
:100050003CC100003AC1000038C1000036C10000B8
:1000600034C1000032C1000030C100002EC10000C8
:100070002CC100002AC1000028C1000026C10000D8
:1000800024C1000022C1000020C1000006022C0291
:10009000520278029E02C402EA02100306025508C8
:1000A0007B089E0470057B067808A1067A0700008D
:1000B00000000000005F00000007000700147F142C
:1000C0007F14242A7F2A122313086462364955229A
:1000D000500005030000001C2241000041221C00CA
:1000E00014083E081408083E0808005030000008B4
:1000F00008080808006060000020100804023E5153
:1001000049453E00427F40004261514946214145F8
:100110004B311814127F1027454545393C4A49494F
:100120003001710905033649494936064949291EF6
:100130000036360000005636000008142241001434
:100140001414141400412214080201510906324902
:1001500079413E7E1111117E7F494949363E414128
:1001600041227F4141221C7F494949417F090909B8
:10017000013E4149497A7F0808087F00417F4100DC
:100180002040413F017F081422417F404040407F92
:10019000020C027F7F0408107F3E4141413E7F09EF
:1001A0000909063E4151215E7F0919294646494900
:1001B000493101017F01013F4040403F1F20402065
:1001C0001F3F4038403F6314081463070870080756
:1001D0006151494543007F4141000204081020005D
:1001E00041417F00040201020440404040400001C0
:1001F00002040020545454787F484444383844441E
:100200004420384444487F3854545418087E090127
:10021000020C5252523E7F0804047800447D400094
:100220002040443D007F1028440000417F40007C76
:10023000041804787C0804047838444444387C1456
:10024000141408081414187C7C0804040848545436
:100250005420043F4440203C4040207C1C2040204F
:100260001C3C4030403C44281028440C5050503C2A
:100270004464544C44000836410000007F000000F4
:100280004136080010080810080000000000112482
:100290001FBECFEFD0E4DEBFCDBF11E0A0E0B1E0E4
:1002A000E8E9F7E100E00BBF02C007900D92A0392A
:1002B000B107D9F724E0A0E9B1E001C01D92A6364C
:1002C000B207E1F7DDD70C94CA0B9ACE009749F03C
:1002D0001CF40196A9F011C08130910529F0029714
:1002E00061F481E090E008952091B701222351F05C
:1002F0000E947F0A82E090E008958FEF9FEF0895BB
:1003000080E090E008958130910509F520E030E02B
:1003100078E0E1E0F0E078B988B1AF01022E02C0E8
:10032000440F551F0A94E2F7462311F0816001C083
:100330008E7F98B1892B88B9419A2F5F3F4F283023
:10034000310549F7429A88B1807F88B90895833092
:10035000910509F520E030E070E8E1E0F0E078B9DF
:1003600088B1AF01022E02C0440F551F0A94E2F774
:10037000462311F0806101C08F7E98B1892B88B926
:10038000459A2F5F3F4F2830310549F7469A88B18B
:100390008F7088B908950297F9F420E030E0E1E029
:1003A000F0E0179A82B1AF01022E02C0440F551F30
:1003B0000A94E2F7462311F0806101C08F7E92B16A
:1003C000892B82B9159A2F5F3F4F2830310549F7A5
:1003D000169A82B18F7082B9089560E083E090E050
:1003E00092DF6FEF81E090E08EDF6FEF82E090E0D0
:1003F0008ACF0895CF93DF9301968930910508F055
:1004000035C18A5B9F4FFC010C94C10BC0E0D1E069
:10041000E881F981628183E090E075DFE881F9810C
:10042000618181E090E06FDF6FEF82E090E06BDF51
:10043000E881F981628183E090E065DFE881F981FC
:10044000608182E090E05FDF6FEF81E090E05BDF52
:10045000C4DF80E090E00CC1C0E0D1E0EA81FB8124
:10046000628183E090E04FDFEA81FB81618181E07E
:1004700090E049DF6FEF82E090E045DFEA81FB81A9
:10048000628183E090E03FDFEA81FB81608182E06E
:1004900090E039DF6FEF81E090E035DF9EDF81E0B3
:1004A00090E0E6C0C0E0D1E0EC81FD81628183E0B4
:1004B00090E029DFEC81FD81618181E090E023DF24
:1004C0006FEF82E090E01FDFEC81FD81628183E0CD
:1004D00090E019DFEC81FD81608182E090E013DF24
:1004E0006FEF81E090E00FDF78DF82E090E0C0C046
:1004F000C0E0D1E0EE81FF81628183E090E003DF24
:10050000EE81FF81618181E090E0FDDE6FEF82E0AE
:1005100090E0F9DEEE81FF81628183E090E0F3DE1E
:10052000EE81FF81608182E090E0EDDE6FEF81E09F
:1005300090E0E9DE52DF83E090E09AC0C0E0D1E0D5
:10054000E885F985628183E090E0DDDEE885F98564
:10055000618181E090E0D7DE6FEF82E090E0D3DE52
:10056000E885F985628183E090E0CDDEE885F98554
:10057000608182E090E0C7DE6FEF81E090E0C3DE53
:100580002CDF84E090E074C0C0E0D1E0EA85FB8518
:10059000628183E090E0B7DEEA85FB85618181E0DE
:1005A00090E0B1DE6FEF82E090E0ADDEEA85FB85A2
:1005B000628183E090E0A7DEEA85FB85608182E0CE
:1005C00090E0A1DE6FEF81E090E09DDE06DF85E048
:1005D00090E04EC0C0E0D1E0EC85FD85628183E013
:1005E00090E091DEEC85FD85618181E090E08BDE1D
:1005F0006FEF82E090E087DEEC85FD85628183E02D
:1006000090E081DEEC85FD85608182E090E07BDE1C
:100610006FEF81E090E077DEE0DE86E090E028C0DA
:10062000C0E0D1E0EE85FF85628183E090E06BDE83
:10063000EE85FF85618181E090E065DE6FEF82E00D
:1006400090E061DEEE85FF85628183E090E05BDE15
:10065000EE85FF85608182E090E055DE6FEF81E0FE
:1006600090E051DEBADE87E090E002C08FEF9FEFAE
:10067000DF91CF910895EAE7F0E08081806E80837A
:10068000ECE7F0E08081806480830895ECE7F0E09F
:100690009081987F8370892B80838FE090E00000A9
:1006A0000197E9F780917800909179000895CF93B0
:1006B000DF9381E0EBDFEC0180E0E8DFCE3521E085
:1006C000D20798F410924E0410924D0481E090E00D
:1006D0009093400480933F0410924204109241048E
:1006E000109239041092380444C0CB38D24098F0AC
:1006F0001092400410923F0410924E0410924D0448
:10070000109239041092380481E090E090934204F2
:10071000809341042EC0282F392F293582E03807D5
:1007200098F01092420410924104109240041092EA
:100730003F0410924E0410924D0481E090E090939B
:1007400039048093380415C02A3F310590F4109283
:1007500039041092380481E090E090934E04809325
:100760004D041092420410924104109240041092E1
:100770003F04DF91CF9108951092420410924104FA
:100780001092400410923F041092390410923804E1
:1007900010924E0410924D040895609316017093C8
:1007A000170180931801909319016093B801709319
:1007B000B9018093BA019093BB0108958BE08093B7
:1007C00081008DE790E0909389008093880082E01B
:1007D00080936F0010928500109284008091160122
:1007E00090911701A0911801B09119018093B8015F
:1007F0009093B901A093BA01B093BB018FB7806801
:100800008FBF08951F920F920FB60F9211248F93EE
:100810009F93AF93BF938091B8019091B901A0913C
:10082000BA01B091BB010197A109B1098093B80148
:100830009093B901A093BA01B093BB01892B8A2B85
:100840008B2B99F481E08093BC01809116019091EB
:100850001701A0911801B09119018093B8019093EC
:10086000B901A093BA01B093BB01BF91AF919F9121
:100870008F910F900FBE0F901F901895E7EBF3E04C
:1008800027E334E009C011921192E817F907D9F76C
:10089000FC012817390719F0CF014096F4CF0895CD
:1008A000CF93DF93EC01FC019C01205F3F4F9FEF52
:1008B000A081B18111969C93A191B1919C93E21773
:1008C000F307B1F7E881F98181E08283EA81FB8156
:1008D00082E08283EC81FD8184E08283EE81FF816E
:1008E00088E08283E885F98580E18283EA85FB855B
:1008F00080E28283EC85FD8580E48283EE85FF853E
:1009000080E88283DF91CF910895FC019C01205FF4
:100910003F4F8FEFA191B19111968C93E217F3079E
:10092000C9F70895CF93DF93EC01FC013196E830CD
:10093000F10508F0DDC3E15BFF4F23C780914D0453
:1009400090914E04019709F03AC0D9D560E080E05B
:10095000CED661E080E291E0B8D669E185E0C7D605
:1009600061E08FE291E0B1D663E280E0C0D661E061
:100970008CE391E0AAD663E285E0B9D661E08EE32C
:1009800091E0A3D68091B3019091B401019741F415
:1009900069E084E1ACD661E089E491E096D60DC0CF
:1009A0008091B5019091B601019739F469E083E037
:1009B0009ED661E080E591E088D69ED6A0C31A99C4
:1009C0002CC081E090E09093B6018093B50197D55B
:1009D00060E080E08CD661E080E291E076D669E06C
:1009E00083E085D661E080E591E06FD669E180E043
:1009F0007ED661E08CE391E068D669E185E077D648
:100A000061E08FE291E061D663E285E070D661E05B
:100A10008EE391E05AD670D66EC318992CC081E04F
:100A200090E09093B4018093B30169D560E080E0D9
:100A30005ED661E080E291E048D669E084E157D675
:100A400061E089E491E041D669E180E050D661E05F
:100A50008CE391E03AD669E185E049D661E08FE226
:100A600091E033D663E285E042D661E08EE391E027
:100A70002CD642D640C319992AC01092B4011092C4
:100A8000B3013DD560E080E032D661E080E291E0E4
:100A90001CD669E083E02BD661E080E591E015D6B5
:100AA00069E180E024D661E08CE391E00ED669E153
:100AB00085E01DD661E08FE291E007D663E285E034
:100AC00016D661E08EE391E000D616D614C31B99CA
:100AD00012C381E090E09093B2018093B1010BC307
:100AE0008091380490913904019709F03AC007D5F4
:100AF00060E080E0FCD561E080E291E0E6D569E16C
:100B000080E0F5D561E08CE391E0DFD569E185E037
:100B1000EED561E08FE291E0D8D563E285E0E7D5DC
:100B200061E08EE391E0D1D58091B3019091B40161
:100B3000019741F469E084E1DAD561E089E491E06C
:100B4000C4D50DC08091B5019091B601019739F4DB
:100B500069E083E0CCD561E080E591E0B6D5CCD505
:100B6000CAC21A992CC081E090E09093B60180939C
:100B7000B501C5D460E080E0BAD561E080E291E0E3
:100B8000A4D569E083E0B3D561E080E591E09DD52F
:100B900063E280E0ACD561E08CE391E096D569E159
:100BA00085E0A5D561E08FE291E08FD563E285E035
:100BB0009ED561E08EE391E088D59ED59CC21899C0
:100BC0002CC081E090E09093B4018093B30197D45E
:100BD00060E080E08CD561E080E291E076D569E06C
:100BE00084E185D561E089E491E06FD569E185E034
:100BF0007ED561E08FE291E068D563E280E077D551
:100C000061E08CE391E061D563E285E070D561E05D
:100C10008EE391E05AD570D572C219992AC010920C
:100C2000B4011092B3016BD460E080E060D561E064
:100C300080E291E04AD569E083E059D561E080E542
:100C400091E043D569E185E052D561E08FE291E022
:100C50003CD563E280E04BD561E08CE391E035D593
:100C600063E285E044D561E08EE391E02ED544D582
:100C700046C21B9944C243D460E080E038D561E0AD
:100C80008FE591E022D56FE085E031D561E08CE61B
:100C900091E01BD58091120190911301019729F4E5
:100CA00061E084E791E011D504C061E087E791E05D
:100CB0000CD56FE080E01BD561E08CE391E005D5B9
:100CC00069E185E014D561E08BE791E0FED4809185
:100CD0001001909111018130910529F461E083E8C0
:100CE00091E0F3D406C0029721F461E088E891E036
:100CF000ECD402D508C28091380490913904019750
:100D000009F0F4C1FCD360E080E0F1D461E080E25E
:100D100091E0DBD469E185E0EAD461E08FE291E023
:100D2000D4D469E180E0E3D461E08CE391E0CDD4F8
:100D300063E285E0DCD461E08EE391E0C6D4DCD4EC
:100D4000DEC180914D0490914E04019709F040C09E
:100D5000D6D360E080E0CBD461E08FE591E0B5D4FC
:100D60006FE085E0C4D461E08CE691E0AED4809180
:100D7000120190911301019729F461E084E791E059
:100D8000A4D404C061E087E791E09FD469E180E0EA
:100D9000AED461E08CE391E098D469E185E0A7D41A
:100DA00061E08BE791E091D4809110019091110165
:100DB0008130910529F461E083E891E086D406C092
:100DC000029721F461E088E891E07FD495D49FC137
:100DD0001B9954C08091120190911301019741F425
:100DE00080E091E092DD109213011092120106C092
:100DF00081E090E0909313018093120180D360E032
:100E000080E075D461E08FE591E05FD46FE085E02C
:100E10006ED461E08CE691E058D4809112019091FB
:100E20001301019729F461E084E791E04ED404C0F6
:100E300061E087E791E049D46FE080E058D461E059
:100E40008CE391E042D469E185E051D461E08BE725
:100E500091E03BD480911001909111018130910576
:100E600029F461E083E891E030D406C0029721F4D0
:100E700061E088E891E029D43FD445C11C9943C181
:100E80003ED360E080E033D461E080E291E01DD4A5
:100E900069E180E02CD461E08CE391E016D469E153
:100EA00085E025D461E08FE291E00FD463E285E034
:100EB0001ED461E08EE391E008D48091B30190915B
:100EC000B401019741F469E084E111D461E089E45F
:100ED00091E0FBD30DC08091B5019091B6010197CF
:100EE00039F469E083E003D461E080E591E0EDD37B
:100EF00003D401C18091380490913904019709F01D
:100F000040C0FDD260E080E0F2D361E08FE591E087
:100F1000DCD36FE085E0EBD361E08CE691E0D5D3E4
:100F20008091120190911301019729F461E084E707
:100F300091E0CBD304C061E087E791E0C6D36FE0D6
:100F400080E0D5D361E08CE391E0BFD369E185E037
:100F5000CED361E08BE791E0B8D3809110019091FE
:100F600011018130910529F461E083E891E0ADD36E
:100F700006C0029721F461E088E891E0A6D3BCD3D3
:100F8000C2C01B9956C0809110019091110181300F
:100F9000910539F482E090E0909311018093100163
:100FA00008C0029731F481E090E0909311018093A2
:100FB0001001A5D260E080E09AD361E08FE591E076
:100FC00084D36FE085E093D361E08CE691E07DD33C
:100FD0008091120190911301019729F461E084E757
:100FE00091E073D304C061E087E791E06ED369E1DB
:100FF00080E07DD361E08CE391E067D369E185E037
:1010000076D361E08BE791E060D3809110019091FD
:1010100011018130910529F461E083E891E055D315
:1010200006C0029721F461E088E891E04ED364D3D2
:101030006EC01C996CC063D260E080E058D361E060
:1010400080E291E042D369E180E051D361E08CE33A
:1010500091E03BD369E185E04AD361E08FE291E022
:1010600034D363E285E043D361E08EE391E02DD396
:101070008091B3019091B401019741F469E084E15A
:1010800036D361E089E491E020D30DC08091B501B1
:101090009091B601019739F469E083E028D361E0CB
:1010A00080E591E012D328D326C029D260E080E009
:1010B0001ED361E080E291E008D369E180E017D3BC
:1010C00061E08CE391E001D369E185E010D361E058
:1010D0008FE291E0FAD263E285E009D361E08EE32A
:1010E00091E0F3D209D3C0E0D0E014C045DB12C0D8
:1010F000CFEFDFEF0FC040DBC1E0D0E00BC03CDB47
:10110000C2E0D0E007C038DBC5E0D0E003C034DB8C
:10111000C6E0D0E0CE01DF91CF910895CF93DF9369
:10112000EC0182E0B3DA9093620480936104209131
:10113000140130911501281B390BC901992324F49E
:1011400088279927821B930BAC0190934C048093C2
:101150004B049C01205131092530310540F4EE85C6
:10116000FF8587EE8183E881F981818355C04597AA
:10117000059778F4EC85FD8587EE8183EE85FF8504
:1011800093EC9183E881F9819183EA81FB818183EA
:1011900043C0CA014A970597B0F4EA85FB8527EE5C
:1011A0002183EC85FD8593EC9183EE85FF8581E8B5
:1011B0008183EC81FD812183EA81FB819183E88138
:1011C000F981818329C04F315105E0F0E885F98527
:1011D00027EE2183EA85FB8593EC9183EC85FD85E1
:1011E00081E88183EE85FF851182EE81FF81218375
:1011F000EC81FD819183EA81FB818183E881F98122
:1012000011820AC0FE0160968FEFA191B1911196F3
:101210008C93EC17FD07C9F7DF91CF9108958EBD30
:101220000DB407FEFDCF08951F920F920FB60F92D7
:1012300011240BB60F922F933F934F935F936F93AD
:101240007F938F939F93AF93BF93EF93FF938EB54D
:101250008093B7015E9A8FEFE2DFFF91EF91BF912C
:10126000AF919F918F917F916F915F914F913F913E
:101270002F910F900BBE0F900FBE0F901F901895DF
:10128000CF93DF9300D000D000D0CDB7DEB780EF92
:1012900081B98FE082B914B88FEF85B987B918B8D2
:1012A0008AB91BB8E8D9F5D02AD180E091E0F8DA04
:1012B000E5DA0F2EF5E0EF2EF02DF12C00E010E036
:1012C00051E040E030E020E004C0E62EF72E082F89
:1012D000192F652F742F832F922F2E2D3F2D402FE6
:1012E000512F2DD25E2D4F2D302F212F61157105DD
:1012F0008105910551F764E670E080E090E02E2DC5
:101300003F2D402F512F1BD229013A0161E070E09F
:1013100080E090E02E2D3F2D402F512F10D249011B
:101320005A0165E070E080E090E02E2D3F2D402FC7
:10133000512F05D286E0EAE1F1E0DE01119601903D
:101340000D928A95E1F7E6EAF1E06FEF6083418262
:10135000528263827482458256826782708682E9F5
:1013600094E092878187EBE9F1E060838182928249
:10137000A382B48285829682A782B0868AEF91E0AA
:1013800092878187E0E9F1E06083218332834383A0
:101390005483258336834783508786E691E092877E
:1013A00081876E2D7F2D802F912FF7D907DA7E014F
:1013B00087E0E80EF11C7BD98091B3019091B401D4
:1013C000019709F041C0809112019091130101979A
:1013D000D9F580E091E0A2DE37C0D6010D911D91D4
:1013E0006D01F80145815681678170858181928107
:1013F000A381B481481759076A077B0779F4808174
:101400000184F285E02D082E000C990B0995D80176
:101410008C93F8011582168217821086F801858157
:101420009681A781B0850196A11DB11D8583968304
:10143000A783B087CE14DF0481F68091BC01882396
:10144000E1F31092BC01B7CFCE0101966C01C5CF7C
:101450005898662311F05A9A15C05A9813C0AC01D7
:10146000022E02C0559547950A94E2F740FF02C04C
:101470005B9A01C05B985C9A5C982150310978F7BF
:10148000589A089527E030E090E0E9CF60E0E0CF9F
:101490000895CF93DF93509A519A529A539A549A3F
:1014A000599A589A83EC99E00197F1F700C000002F
:1014B00059988BE594E40197F1F700C00000599A20
:1014C000589881E2E3DF83E1E1DF86E0DFDF82EC51
:1014D000DDDF80E2DBDF89E0D9DF80E8D7DF80E491
:1014E000D5DFC8EFD1E061E080E0B2DF2197D9F726
:1014F00088E0CCDF8CE0CADFDF91CF91089580E8EF
:10150000C5DF80E4C3DF1092B5031092B603EDEBA4
:10151000F1E085EB93E01192E817F907E1F7089500
:10152000262F26952695269590E034E5239F800D5D
:10153000911D1124442379F0FC01E354FE4F6770A0
:1015400081E090E002C0880F991F6A95E2F79081D0
:10155000892B80830895FC01E354FE4F677081E07E
:1015600090E002C0880F991F6A95E2F780959081FC
:101570008923808308955F926F927F928F929F92CA
:10158000AF92BF92CF92DF92EF92FF920F931F9391
:10159000CF93DF93562E262F30E04901880C991CFB
:1015A000880C991C820E931E181419040CF059C053
:1015B0008901000F111F000F111F000F111F021BC7
:1015C000130B612CA82EB12CC50180975C01AA0CCD
:1015D000BB1CAA0CBB1CA80EB91E0F2EF6EBCF2EFF
:1015E000F3E0DF2EF02D0F2EF5EBEF2EF3E0FF2EC4
:1015F000F02D2AC0FE01249130E0872D652D93D077
:1016000002C0359527958A95E2F720FF09C0F601BB
:101610006081670DF701808141E0860D81DF08C0A0
:10162000F6016081670DF701808140E0860D78DF6B
:101630007394872D90E080179107E4F26394862DD0
:1016400090E0881599056CF410161106BCF7862DEC
:10165000652D69D0E501C80FD11DC255DF4F712C32
:10166000C9CF8091B50391E0980F852D880F880F21
:10167000850D890F843518F48093B5030EC0109240
:10168000B503E6EBF3E0808191E0980F852D880F9C
:10169000880F880F8519890F80838091B603803366
:1016A00020F01092B5031092B603DF91CF911F91F5
:1016B0000F91FF90EF90DF90CF90BF90AF909F90F1
:1016C0008F907F906F905F9008951F93CF93DF93DB
:1016D000EC018881882339F0162F2196612F4BDF8A
:1016E00089918111FBCFDF91CF911F910895809354
:1016F000B5036093B60308950F931F93CF93DF93C1
:1017000080E8C4DE80E4C2DECDEBD1E005EB13E07F
:1017100061E089919DDEC017D107D1F7DF91CF91AC
:101720001F910F910895991B79E004C0991F961796
:1017300008F0961B881F7A95C9F780950895A1E255
:101740001A2EAA1BBB1BFD010DC0AA1FBB1FEE1F3B
:10175000FF1FA217B307E407F50720F0A21BB30B86
:10176000E40BF50B661F771F881F991F1A9469F702
:1017700060957095809590959B01AC01BD01CF015E
:101780000895EE0FFF1F0024001C0BBE0790F6917A
:08179000E02D0994F894FFCF4D
:101798005704430454045B043B04460463044F04A5
:1017A80001000100000201000000A6019B01900158
:1017B80053696D706C654254506C61796572005361
:1017C8007065616B6572204D6F6465002A004C4539
:1017D80044204D61747269780050616972656400D3
:1017E800526561647920746F207061697221004CC0
:1017F80045442053657474696E677300506F77654C
:10180800723A20004F6E004F666600436F6C6F722D
:101818003A2000426C75650052656400256400003A
:00000001FF
