:100000004EC0000069C0000067C0000065C000006D
:1000100063C0000061C000005FC000005DC0000060
:100020005BC0000059C0000057C0000055C0000070
:1000300053C00000CFC200004FC000004DC0000000
:100040004BC0000049C0000047C0000045C0000090
:1000500043C0000041C000003FC000003DC00000A0
:100060003BC0000039C0000037C0000035C00000B0
:1000700033C0000031C000002FC000002DC00000C0
:100080002BC0000029C0000027C00000FF00250190
:100090004B0171019701BD01E3010902FF00112429
:1000A0001FBECFEFD0E4DEBFCDBF11E0A0E0B1E0D6
:1000B000EAE3F8E000E00BBF02C007900D92A43124
:1000C000B107D9F723E0A4E1B1E001C01D92AF3C34
:1000D000B207E1F7BBD2AFC393CF8F3F2FEF9207A9
:1000E00021F034F002973CF003C080E090E00895E6
:1000F0008FEF9FEF089581E090E0089582309105A1
:1001000009F520E030E078E0E1E0F0E078B988B18E
:10011000AF01022E02C0440F551F0A94E2F7462396
:1001200011F0816001C08E7F98B1892B88B9419A06
:100130002F5F3F4F2830310549F7429A88B1807FC1
:1001400088B908958330910501F580E090E050E88A
:10015000E1E0F0E058B948B19F01082E02C0220F3B
:10016000331F0A94E2F7262319F0242F206102C0DE
:10017000242F2F7E28B9459A01968830910551F792
:10018000469A88B18F7088B908950197F9F480E094
:1001900090E050E8E1E0F0E052B942B19F01082E52
:1001A00002C0220F331F0A94E2F7262319F0242FEE
:1001B000206102C0242F2F7E22B9159A0196883023
:1001C000910551F7169A82B18F7082B9089560E057
:1001D00083E090E093DF6FEF81E090E08FDF6FEFDF
:1001E00082E090E08BCF0895CF93DF930196893022
:1001F000910508F034C18A5B9F4FFC0113C3C0E036
:10020000D1E0E881F981628183E090E077DFE881E5
:10021000F981618181E090E071DF6FEF82E090E031
:100220006DDFE881F981628183E090E067DFE8813A
:10023000F981608182E090E061DF6FEF81E090E022
:100240005DDFC5DF80E090E00CC1C0E0D1E0EA8175
:10025000FB81628183E090E051DFEA81FB81618173
:1002600081E090E04BDF6FEF82E090E047DFEA81D2
:10027000FB81628183E090E041DFEA81FB81608164
:1002800082E090E03BDF6FEF81E090E037DF9FDFBF
:1002900081E090E0E6C0C0E0D1E0EC81FD816281C8
:1002A00083E090E02BDFEC81FD81618181E090E0D3
:1002B00025DF6FEF82E090E021DFEC81FD8162813C
:1002C00083E090E01BDFEC81FD81608182E090E0C3
:1002D00015DF6FEF81E090E011DF79DF82E090E0E1
:1002E000C0C0C0E0D1E0EE81FF81628183E090E098
:1002F00005DFEE81FF81618181E090E0FFDE6FEF3D
:1003000082E090E0FBDEEE81FF81628183E090E09D
:10031000F5DEEE81FF81608182E090E0EFDE6FEF3D
:1003200081E090E0EBDE53DF83E090E09AC0C0E034
:10033000D1E0E885F985628183E090E0DFDEE88541
:10034000F985618181E090E0D9DE6FEF82E090E095
:10035000D5DEE885F985628183E090E0CFDEE8852F
:10036000F985608182E090E0C9DE6FEF81E090E086
:10037000C5DE2DDF84E090E074C0C0E0D1E0EA8506
:10038000FB85628183E090E0B9DEEA85FB856181CF
:1003900081E090E0B3DE6FEF82E090E0AFDEEA85CF
:1003A000FB85628183E090E0A9DEEA85FB856081C0
:1003B00082E090E0A3DE6FEF81E090E09FDE07DF58
:1003C00085E090E04EC0C0E0D1E0EC85FD85628123
:1003D00083E090E093DEEC85FD85618181E090E033
:1003E0008DDE6FEF82E090E089DEEC85FD85628135
:1003F00083E090E083DEEC85FD85608182E090E023
:100400007DDE6FEF81E090E079DEE1DE86E090E076
:1004100028C0C0E0D1E0EE85FF85628183E090E0F6
:100420006DDEEE85FF85618181E090E067DE6FEF34
:1004300082E090E063DEEE85FF85628183E090E0FC
:100440005DDEEE85FF85608182E090E057DE6FEF34
:1004500081E090E053DEBBDE87E090E002C08FEFEA
:100460009FEFDF91CF910895EAE7F0E08081806E01
:100470008083ECE7F0E08081806480830895ECE77E
:10048000F0E09081987F8370892B80838FE090E0EB
:1004900000000197E9F78091780090917900089524
:1004A000CF93DF9381E0EBDFEC0180E0E8DFCE3536
:1004B00021E0D20798F41092BD031092BC0381E0B2
:1004C00090E09093B1038093B0031092B303109225
:1004D000B2031092AA031092A90344C0CB38D240B1
:1004E00098F01092B1031092B0031092BD031092D5
:1004F000BC031092AA031092A90381E090E09093AC
:10050000B3038093B2032EC0282F392F293582E000
:10051000380798F01092B3031092B2031092B1030F
:100520001092B0031092BD031092BC0381E090E0E2
:100530009093AA038093A90315C02A3F310590F434
:100540001092AA031092A90381E090E09093BD035A
:100550008093BC031092B3031092B2031092B103C4
:100560001092B003DF91CF910895609310017093C2
:100570001101809312019093130160932A017093EB
:100580002B0180932C0190932D0108958BE0809393
:1005900081008DE790E0909389008093880082E04D
:1005A00080936F001092850010928400809110015A
:1005B00090911101A0911201B091130180932A0131
:1005C00090932B01A0932C01B0932D018FB78068DD
:1005D0008FBF08951F920F920FB60F9211248F9321
:1005E0009F93AF93BF9380912A0190912B01A0918B
:1005F0002C01B0912D010197A109B10980932A0125
:1006000090932B01A0932C01B0932D01892B8A2B61
:100610008B2B99F481E080932E01809110019091B1
:100620001101A0911201B091130180932A019093BE
:100630002B01A0932C01B0932D01BF91AF919F91FD
:100640008F910F900FBE0F901F901895CF93DF934F
:1006500000D000D0CDB7DEB707DF9DD0D2D0AFE15C
:10066000B1E0BA83A983E4E1F1E0FC83EB838FEF8F
:100670008C9344E650E060E070E011964D935D93FA
:100680006D937C93149715964D935D936D937C9326
:1006900018972DE630E01A963C932E931997808395
:1006A00081E090E0A0E0B0E081839283A383B483F3
:1006B00085839683A783B08784EF90E092878187B4
:1006C00061E070E080E090E050DF60DF7E0185E077
:1006D000E80EF11CE5DEDE0111966D01F6010191D7
:1006E00011916F01D80115964D915D916D917C919D
:1006F000189711968D919D910D90BC91A02D481742
:1007000059076A077B0781F4F80180810184F2852B
:10071000E02D082E000C990B0995D8018C93F80157
:100720001582168217821086F80185819681A7812D
:10073000B0850196A11DB11D85839683A783B087DF
:10074000CE14DF0459F680912E018823E1F3109234
:100750002E01C0CF2898662311F02A9A15C02A9836
:1007600013C0AC01022E02C0559547950A94E2F7DA
:1007700040FF02C02B9A01C02B982C9A2C98215034
:10078000310978F7289A089527E030E090E0E9CF22
:1007900060E0E0CF0895CF93DF93209A219A229AC8
:1007A000239A249A299A289A83EC99E00197F1F7E1
:1007B00000C0000029988BE594E40197F1F700C090
:1007C0000000299A289881E2E3DF83E1E1DF86E0F7
:1007D000DFDF82ECDDDF80E2DBDF89E0D9DF80E88C
:1007E000D7DF80E4D5DFC8EFD1E061E080E0B2DFA1
:1007F0002197D9F788E0CCDF8CE0CADFDF91CF9179
:10080000089580E8C5DF80E4C3DF109227031092CB
:100810002803EFE2F1E087E293E01192E817F9078D
:10082000E1F70895EE0FFF1F0024001C0BBE079098
:0A083000F691E02D0994F894FFCF33
:10083A00C403B403C103C803AC03B703CC03BE03A8
:04084A0001000000A9
:00000001FF
