:100000003EC1000059C1000057C1000055C10000A9
:1000100053C1000051C100004FC100004DC100009C
:100020004BC1000049C1000047C1000045C10000AC
:1000300043C10000C6C400003FC100003DC1000034
:100040003BC1000039C1000037C1000035C10000CC
:1000500033C1000031C100002FC100002DC10000DC
:100060002BC1000029C1000027C1000025C10000EC
:1000700023C1000021C100001FC100001DC10000FC
:100080001BC1000019C1000017C10000DE010402FD
:100090002A02500276029C02C202E802DE0100003F
:1000A00000000000005F00000007000700147F143C
:1000B0007F14242A7F2A12231308646236495522AA
:1000C000500005030000001C2241000041221C00DA
:1000D00014083E081408083E0808005030000008C4
:1000E00008080808006060000020100804023E5163
:1000F00049453E00427F4000426151494621414509
:100100004B311814127F1027454545393C4A49495F
:100110003001710905033649494936064949291E06
:100120000036360000005636000008142241001444
:100130001414141400412214080201510906324912
:1001400079413E7E1111117E7F494949363E414138
:1001500041227F4141221C7F494949417F090909C8
:10016000013E4149497A7F0808087F00417F4100EC
:100170002040413F017F081422417F404040407FA2
:10018000020C027F7F0408107F3E4141413E7F09FF
:100190000909063E4151215E7F0919294646494910
:1001A000493101017F01013F4040403F1F20402075
:1001B0001F3F4038403F6314081463070870080766
:1001C0006151494543007F4141000204081020006D
:1001D00041417F00040201020440404040400001D0
:1001E00002040020545454787F484444383844442E
:1001F0004420384444487F3854545418087E090138
:10020000020C5252523E7F0804047800447D4000A4
:100210002040443D007F1028440000417F40007C86
:10022000041804787C0804047838444444387C1466
:10023000141408081414187C7C0804040848545446
:100240005420043F4440203C4040207C1C2040205F
:100250001C3C4030403C44281028440C5050503C3A
:100260004464544C44000836410000007F00000004
:100270004136080010080810080000000000112492
:100280001FBECFEFD0E4DEBFCDBF11E0A0E0B1E0F4
:10029000E0EEFEE000E00BBF02C007900D92A63436
:1002A000B107D9F724E0A6E4B1E001C01D92A33064
:1002B000B207E1F709D412C6A3CE8130910509F542
:1002C00020E030E078E0E1E0F0E078B988B1AF011B
:1002D000022E02C0440F551F0A94E2F7462311F084
:1002E000816001C08E7F98B1892B88B9419A2F5FB8
:1002F0003F4F2830310549F7429A88B1807F88B94D
:1003000008958330910501F580E090E050E8E1E048
:10031000F0E058B948B19F01082E02C0220F331FE8
:100320000A94E2F7262319F0242F206102C0242F1B
:100330002F7E28B9459A01968830910551F7469A43
:1003400088B18F7088B908950297F9F480E090E041
:1003500050E8E1E0F0E052B942B19F01082E02C03E
:10036000220F331F0A94E2F7262319F0242F20616D
:1003700002C0242F2F7E22B9159A0196883091054C
:1003800051F7169A82B18F7082B9089560E083E0C8
:1003900090E093DF6FEF81E090E08FDF6FEF82E01E
:1003A00090E08BCF0895CF93DF930196893091052C
:1003B00008F034C18A5B9F4FFC0187C5C0E0D1E0E3
:1003C000E881F981628183E090E077DFE881F9815B
:1003D000618181E090E071DF6FEF82E090E06DDF9E
:1003E000E881F981628183E090E067DFE881F9814B
:1003F000608182E090E061DF6FEF81E090E05DDF9F
:10040000C5DF80E090E00CC1C0E0D1E0EA81FB8173
:10041000628183E090E051DFEA81FB81618181E0CC
:1004200090E04BDF6FEF82E090E047DFEA81FB81F5
:10043000628183E090E041DFEA81FB81608182E0BC
:1004400090E03BDF6FEF81E090E037DF9FDF81E0FE
:1004500090E0E6C0C0E0D1E0EC81FD81628183E004
:1004600090E02BDFEC81FD81618181E090E025DF70
:100470006FEF82E090E021DFEC81FD81628183E01B
:1004800090E01BDFEC81FD81608182E090E015DF70
:100490006FEF81E090E011DF79DF82E090E0C0C093
:1004A000C0E0D1E0EE81FF81628183E090E005DF72
:1004B000EE81FF81618181E090E0FFDE6FEF82E0FD
:1004C00090E0FBDEEE81FF81628183E090E0F5DE6B
:1004D000EE81FF81608182E090E0EFDE6FEF81E0EE
:1004E00090E0EBDE53DF83E090E09AC0C0E0D1E023
:1004F000E885F985628183E090E0DFDEE885F985B3
:10050000618181E090E0D9DE6FEF82E090E0D5DE9E
:10051000E885F985628183E090E0CFDEE885F985A2
:10052000608182E090E0C9DE6FEF81E090E0C5DE9F
:100530002DDF84E090E074C0C0E0D1E0EA85FB8567
:10054000628183E090E0B9DEEA85FB85618181E02C
:1005500090E0B3DE6FEF82E090E0AFDEEA85FB85EE
:10056000628183E090E0A9DEEA85FB85608182E01C
:1005700090E0A3DE6FEF81E090E09FDE07DF85E093
:1005800090E04EC0C0E0D1E0EC85FD85628183E063
:1005900090E093DEEC85FD85618181E090E08DDE69
:1005A0006FEF82E090E089DEEC85FD85628183E07B
:1005B00090E083DEEC85FD85608182E090E07DDE69
:1005C0006FEF81E090E079DEE1DE86E090E028C028
:1005D000C0E0D1E0EE85FF85628183E090E06DDED2
:1005E000EE85FF85618181E090E067DE6FEF82E05C
:1005F00090E063DEEE85FF85628183E090E05DDE62
:10060000EE85FF85608182E090E057DE6FEF81E04C
:1006100090E053DEBBDE87E090E002C08FEF9FEFFB
:10062000DF91CF910895EAE7F0E08081806E8083CA
:10063000ECE7F0E08081806480830895ECE7F0E0EF
:100640009081987F8370892B80838FE090E00000F9
:100650000197E9F780917800909179000895CF9300
:10066000DF9381E0EBDFEC0180E0E8DFCE3521E0D5
:10067000D20798F41092F1031092F00381E090E019
:100680009093E5038093E4031092E7031092E6034E
:100690001092DE031092DD0344C0CB38D24098F0B4
:1006A0001092E5031092E4031092F1031092F0030C
:1006B0001092DE031092DD0381E090E09093E70357
:1006C0008093E6032EC0282F392F293582E0380782
:1006D00098F01092E7031092E6031092E50310924F
:1006E000E4031092F1031092F00381E090E0909304
:1006F000DE038093DD0315C02A3F310590F410928C
:10070000DE031092DD0381E090E09093F10380938B
:10071000F0031092E7031092E6031092E5031092A3
:10072000E403DF91CF9108951092E7031092E6035E
:100730001092E5031092E4031092DE031092DD03A1
:100740001092F1031092F00308958130910591F019
:100750004CF48F3F2FEF920709F4C7C0892B09F49F
:10076000EFC0EBC08230910509F439C0039709F45A
:100770008FC0E3C08091F0039091F103019731F5B0
:1007800084D260E080E079D361E084E191E063D3DA
:100790006FE085E072D361E083E291E05CD369E1D0
:1007A00080E06BD361E08BE291E055D369E185E0B5
:1007B00064D361E08DE291E04ED363E285E05DD3E6
:1007C00061E08AE391E047D35DD3BEC00299B8C02F
:1007D00081E090E090935D0180935C01B1C08091D5
:1007E000DD039091DE03019731F54FD260E080E0A8
:1007F00044D361E084E191E02ED36FE085E03DD306
:1008000061E083E291E027D36FE080E036D361E0DE
:100810008BE291E020D369E185E02FD361E08DE2A6
:1008200091E019D363E285E028D361E08AE391E0A7
:1008300012D328D385C08091F0039091F1030197E2
:1008400009F082C022D260E080E017D361E084E149
:1008500091E001D36FE085E010D361E083E291E0A5
:10086000FAD269E185E009D361E08DE291E0F3D24B
:1008700063E285E002D361E08AE391E0ECD263E2D7
:1008800080E0FBD261E08BE291E0E5D2FBD260C078
:100890008091DD039091DE03019709F059C0F5D1F5
:1008A00060E080E0EAD261E084E191E0D4D26FE0E0
:1008B00085E0E3D261E083E291E0CDD269E185E0B9
:1008C000DCD261E08DE291E0C6D269E180E0D5D270
:1008D00061E08BE291E0BFD263E285E0CED261E0DD
:1008E0008AE391E0B8D2CED22FC0CFD160E080E0D1
:1008F000C4D261E084E191E0AED26FE085E0BDD288
:1009000061E083E291E0A7D26FE080E0B6D261E0DF
:100910008BE291E0A0D269E185E0AFD261E08DE2A7
:1009200091E099D263E285E0A8D261E08AE391E0A8
:1009300092D2A8D280E090E008958FEF9FEF0895C3
:10094000F3DE81E090E00895EFDE82E090E008952C
:10095000EBDE83E090E00895609310017093110145
:10096000809312019093130160935E0170935F0175
:10097000809360019093610108958BE080938100E2
:100980008DE790E0909389008093880082E08093C7
:100990006F00109285001092840080911001909158
:1009A0001101A0911201B091130180935E01909307
:1009B0005F01A0936001B09361018FB780688FBF22
:1009C00008951F920F920FB60F9211248F939F9349
:1009D000AF93BF9380915E0190915F01A091600100
:1009E000B09161010197A109B10980935E019093D3
:1009F0005F01A0936001B0936101892B8A2B8B2B3F
:100A000099F481E08093620180911001909111012D
:100A1000A0911201B091130180935E0190935F0148
:100A2000A0936001B0936101BF91AF919F918F91AD
:100A30000F900FBE0F901F901895EDE5F3E02DED90
:100A400033E009C011921192E817F907D9F7FC01B8
:100A50002817390719F0CF014096F4CF0895CF93A6
:100A6000DF93EC01FC019C01205F3F4F9FEFA081D1
:100A7000B18111969C93A191B1919C93E217F307D8
:100A8000B1F7E881F98181E08283EA81FB8182E02C
:100A90008283EC81FD8184E08283EE81FF8188E0A6
:100AA0008283E885F98580E18283EA85FB8580E29F
:100AB0008283EC85FD8580E48283EE85FF8580E876
:100AC0008283DF91CF910895CF93DF9300D000D040
:100AD000CDB7DEB71FEF14B915B8A5DDA0D0D5D0BE
:100AE00080E091E0BCDFA9DFA1E5B1E0BA83A98392
:100AF000E6E4F1E0FC83EB831C9344E650E060E025
:100B000070E011964D935D936D937C9314971596B9
:100B10004D935D936D937C93189785EA93E01A96B5
:100B20009C938E931997108381E090E0A0E0B0E051
:100B300081839283A383B48385839683A783B087BD
:100B400083ED91E09287818761E070E080E090E042
:100B500003DF13DF7E0185E0E80EF11C80DDDE019E
:100B600011966D01F601019111916F01D801159651
:100B70004D915D916D917C91189711968D919D91FC
:100B80000D90BC91A02D481759076A077B0781F487
:100B9000F80180810184F285E02D082E000C990B6C
:100BA0000995D8018C93F801158216821782108658
:100BB000F80185819681A781B0850196A11DB11D9F
:100BC00085839683A783B087CE14DF0459F680917E
:100BD00062018823E1F310926201C0CF2898662356
:100BE00011F02A9A15C02A9813C0AC01022E02C037
:100BF000559547950A94E2F740FF02C02B9A01C031
:100C00002B982C9A2C982150310978F7289A08951E
:100C100027E030E090E0E9CF60E0E0CF0895CF93A7
:100C2000DF93209A219A229A239A249A299A289A21
:100C300083EC99E00197F1F700C0000029988BE55B
:100C400094E40197F1F700C00000299A289881E206
:100C5000E3DF83E1E1DF86E0DFDF82ECDDDF80E2FE
:100C6000DBDF89E0D9DF80E8D7DF80E4D5DFC8EFBC
:100C7000D1E061E080E0B2DF2197D9F788E0CCDFF6
:100C80008CE0CADFDF91CF91089580E8C5DF80E472
:100C9000C3DF10925B0310925C03E3E6F1E08BE5A7
:100CA00093E01192E817F907E1F70895262F2695AA
:100CB0002695269590E034E5239F800D911D112403
:100CC000442379F0FC01ED59FE4F677081E090E01C
:100CD00002C0880F991F6A95E2F79081892B808363
:100CE0000895FC01ED59FE4F677081E090E002C06D
:100CF000880F991F6A95E2F78095908189238083F8
:100D000008955F926F927F928F929F92AF92BF925F
:100D1000CF92DF92EF92FF920F931F93CF93DF93C7
:100D2000562E262F30E04901880C991C880C991CFE
:100D3000820E931E181419040CF059C08901000F7B
:100D4000111F000F111F000F111F021B130B612C2D
:100D5000A82EB12CC50180975C01AA0CBB1CAA0C63
:100D6000BB1CA80EB91E0F2EFCE5CF2EF3E0DF2E24
:100D7000F02D0F2EFBE5EF2EF3E0FF2EF02D2AC015
:100D8000FE01249130E0872D652D93D002C035956A
:100D900027958A95E2F720FF09C0F6016081670D6B
:100DA000F701808141E0860D81DF08C0F601608196
:100DB000670DF701808140E0860D78DF7394872D01
:100DC00090E080179107E4F26394862D90E08815F7
:100DD00099056CF410161106BCF7862D652D69D0A7
:100DE000E501C80FD11DC256DF4F712CC9CF8091CC
:100DF0005B0391E0980F852D880F880F850D890F73
:100E0000843518F480935B030EC010925B03ECE50D
:100E1000F3E0808191E0980F852D880F880F880F6F
:100E20008519890F808380915C03803320F01092B4
:100E30005B0310925C03DF91CF911F910F91FF90A4
:100E4000EF90DF90CF90BF90AF909F908F907F906A
:100E50006F905F9008951F93CF93DF93EC0188818B
:100E6000882339F0162F2196612F4BDF899181114C
:100E7000FBCFDF91CF911F91089580935B03609327
:100E80005C0308950F931F93CF93DF9380E8C4DE34
:100E900080E4C2DEC3E6D1E00BE513E061E08991B6
:100EA0009DDEC017D107D1F7DF91CF911F910F9130
:100EB0000895991B79E004C0991F961708F0961BB6
:100EC000881F7A95C9F780950895EE0FFF1F0024BB
:100ED000001C0BBE0790F691E02D0994F894FFCF0B
:100EE000F803E803F503FC03E003EB030004F2035B
:100EF00001000000464D205472616E736D69747478
:100F0000657200464D204D6F6465002A0053706580
:100F1000616B6572204D6F6465004C4544204D61E6
:060F200074726978000004
:00000001FF
